:020000040800F2
:10000000800400209D010008E3020008DF020008D0
:10001000E1020008110200080307000800000000C8
:100020000000000000000000000000000D040008B7
:10003000130200080000000049030008C50400087E
:10004000B7010008B7010008B7010008B7010008B0
:10005000B7010008B7010008B7010008B7010008A0
:10006000B7010008B7010008B7010008B701000890
:10007000B7010008B7010008B7010008B701000880
:10008000B7010008B7010008B7010008B701000870
:10009000B7010008B7010008B7010008B701000860
:1000A000B7010008B7010008B7010008B701000850
:1000B000B7010008B7010008B7010008B701000840
:1000C000B7010008B7010008B7010008B701000830
:1000D000B701000819050008B7010008B7010008BA
:1000E000B7010008B7010008B7010008B701000810
:1000F000B7010008B7010008B7010008B701000800
:10010000B7010008B7010008B7010008B7010008EF
:10011000B7010008B7010008B7010008B7010008DF
:10012000B7010008B7010008B7010008B7010008CF
:10013000B7010008B7010008B7010008B7010008BF
:10014000B7010008B7010008B7010008B7010008AF
:10015000B7010008B7010008B7010008B70100089F
:10016000B7010008B7010008B7010008B70100088F
:10017000B7010008B7010008B7010008B70100087F
:10018000B7010008B7010008DFF80CD000F02EF826
:100190000048004775090008800400200648804791
:1001A00006480047FEE7FEE7FEE7FEE7FEE7FEE75C
:1001B000FEE7FEE7FEE7FEE7C90400088901000844
:1001C00030B50B46014600202022012409E021FA27
:1001D00002F59D4205D303FA02F5491B04FA02F524
:1001E0002844151EA2F10102F1DC30BD064C074D7A
:1001F00006E0E06840F0010394E8070098471034F7
:10020000AC42F6D3FFF7C4FFC8090008E8090008AC
:10021000FEE77047F0B50023012403270D6804FAB8
:1002200003F21540954242D1D0F800C05E0007FAB3
:1002300006F52CEA050CC0F800C091F804C0D0F80F
:1002400000E00CFA06FC4CEA0E0CC0F800C091F875
:1002500004C0BCF1010F02D0BCF1020F1FD1D0F8D5
:1002600008C02CEA050CC0F808C091F805C0D0F809
:1002700008E00CFA06FC4CEA0E0CC0F808C0D0F8F6
:1002800004C02CEA020CC0F804C0426891F806C011
:100290000CFA03FC1FFA8CFC42EA0C024260C268B2
:1002A000AA43C260CA79C568B2402A43C2605B1CD7
:1002B000102BB3D3F0BD4B07DB0E9A40C90810B525
:1002C00000EB8100016A0F249C40A1430162016A96
:1002D0001143016210BD42694A4042617047FEE726
:1002E000FEE7704730B50F22C47801780123FCB1D6
:1002F000144C246801F1E02104F4E064C4F5E064E6
:10030000C4F30724C4F10405E2404478AC40857886
:10031000154025432A0181F80024007800F01F01D0
:100320008B404009800000F1E020C0F8003130BD72
:1003300001F01F0083404809800000F1E020C0F870
:10034000803130BD0CED00E070470000044A002908
:10035000116801D0014300E0814311607047000043
:1003600030380240044A0029116801D0014300E0FE
:1003700081431160704700004438024070B5204A44
:100380001168204C11F00C0104D06610042903D030
:10039000082903D004601BE0066019E01849091F12
:1003A0000B68C3F380550B6803F03F0315B1B6FB30
:1003B000F3F301E0B4FBF3F30C680968C4F38814A9
:1003C0006343C1F30141491C4900B3FBF1F10160F2
:1003D00011680F2303EA11110B4B5C5C0168E140CB
:1003E00041601468072505EA94241C5D21FA04F491
:1003F0008460126805EA52329A5CD140C16070BDD7
:10040000083802400024F400080000207047000073
:100410000CB500202749019000900A6842F4803210
:100420000A604FF4A0630A6802F400320092019A55
:10043000521C0192009A12B9019A9A42F3D10A68A9
:10044000920334D5012000901A484030026842F0EF
:10045000805202601848026842F4804202601548E7
:10046000083002680260026842F4004202600268DA
:1004700042F4A0520260031F104A1A600A6842F058
:1004800080720A600A689201FCD50D4A40F205614B
:100490001160016821F003010160016841F002016F
:1004A00001600168C1F381010229FAD10CBD0090FD
:1004B0000CBD0000003802400070004008544007A6
:1004C000003C0240704700000F4810B5016841F041
:1004D000010101600C4A00210832116002680B4BD7
:1004E0001A400260031D0A4A1A60026822F4802240
:1004F000026005480C300160FFF78AFF05494FF0A4
:100500000060086010BD000000380240FFFFF6FEEA
:100510001030002408ED00E070B51F4C40F225516A
:10052000204600F04BF8002835D0A18820461B4C0F
:10053000C9B21B4A21700A2904D060681154401CBA
:10054000606006E0616800255554154900F0C8F860
:1005500065602078134D312803D1A9142846FFF790
:10056000BAFE2078322804D14FF400512846FFF714
:10057000B2FE2078332804D14FF480412846FFF79B
:10058000AAFE2078342806D12846BDE870404FF4F2
:100590000041FFF7A0BE70BD001001400000002028
:1005A00018000020000C02400029818902D041F48B
:1005B000005101E021F400518181704730B501F014
:1005C0001F0201240025C1F3421304FA02F2012B99
:1005D0000FD0022B0FD0838A4FEA112100881342DB
:1005E00004FA01F400EA040001D000B10125284614
:1005F00030BD8389F0E7038AEEE710B5C1F34213FB
:1006000001F01F040121A140012B07D0022B07D0CC
:100610001430002A026805D00A4304E00C30F8E7E1
:100620001030F6E78A43026010BD00007FB5044633
:10063000008A0D4620F44051E88808432082A089B2
:1006400041F20C618843A9882A8911436A890243CF
:100650001143A181A08A20F44071A8890843A08297
:100660006846FFF78BFE1A48844202D0194884423C
:1006700001D1039800E00298A189090400EBC001B0
:1006800001EB0010296801D5490000E08900B0FBAA
:10069000F1F26420B2FBF0F109010B096FF01805CB
:1006A0006B4302EB8302A3891D044FF0320306D58E
:1006B00003EBC202B2FBF0F000F0070005E003EB31
:1006C0000212B2FBF0F000F00F00084320817FBD62
:1006D0000010014000140140C1F3080181807047FF
:1006E00070B50C46054608E028884006FCD5217800
:1006F0002846FFF7F1FF14F8010B20780028F3D10A
:1007000070BDFEE70FB4084B10B504A902AA039808
:1007100000F01CF8044602A9002000F0C1F82046B1
:1007200010BC5DF814FB0000A108000802E008C836
:10073000121F08C1002AFAD170477047002001E05B
:1007400001C1121F002AFBD1704700002DE9FF4FA5
:1007500089B09B460446002506E025280BD05A4662
:100760000B999047641C6D1C20780028F5D10DB0C2
:100770002846BDE8F08F0027B8460122474900E02F
:10078000074314F8013F203B02FA03F00842F7D177
:1007900020782E2819D114F8010F47F004072A28D1
:1007A0000ED06FF02F022078A0F1300109290CD86B
:1007B00008EB880102EB410100EB0108641CF2E741
:1007C0000A98641C50F8048B0A9020780028CED038
:1007D000642808D0692806D075281ED05A460B997F
:1007E00090476D1C58E00A994FF00A0901C90A9117
:1007F000002802DA40422D2102E0390504D52B21E0
:100800008DF82010012103E0F90704D02021F7E73B
:100810008A4608AE0DE00021FAE70A994FF00A096E
:1008200001C90A91F7E74946FFF7CAFC303106F8DB
:10083000011D0028F7D1ADEB060000F12009780773
:1008400001D44FF00108C84502DDA8EB090000E023
:1008500000208046002706E008A85A46C05D0B9994
:1008600090476D1C7F1C5745F6DB04E030205A464C
:100870000B9990476D1CB8F10001A8F10108F5DC57
:1008800005E016F8010B5A460B9990476D1CB9F11B
:100890000001A9F10109F4DC641C65E709280100E5
:1008A0000A68531C0B60107070470000F0B50546D5
:1008B00087B001210820FFF749FD2B494FF0AA40DE
:1008C000086029494FF0FF300831086001211020ED
:1008D000FFF748FD01210220FFF738FDC0200490FA
:1008E00002208DF814008DF8150000241F4F8DF89C
:1008F000164001268DF8176004A93846FFF78AFCD8
:10090000072206213846FFF7D6FC07221146384653
:10091000FFF7D1FC0095ADF808400C20144DADF860
:100920000440ADF80A00ADF80640ADF80C40694649
:100930002846FFF77BFE012240F225512846FFF7AB
:100940005CFE25208DF818008DF819408DF81A40AE
:100950008DF81B6006A8FFF7C5FC01212846FFF7AC
:1009600023FE07B0F0BD0000000C0240000402406E
:100970000010014088B04FF41650FFF797FF074C66
:10098000074D08A168466268FFF7BCFE6946284625
:10099000FFF7A6FE6068401C6060F2E700000020E0
:1009A0000010014053746D333246342048432030E8
:1009B0003520426C7565746F6F74682044656E6590
:1009C0006D65202564200A00E80900080000002069
:1009D000180000002C070008000A0008180000207A
:1009E000680400003C070008000000000000000050
:1009F00000000000010203040102030406070809C5
:040000050800018965
:00000001FF
