:020000040800F2
:10000000180400209D0100082903000825030008AA
:100010002703000809020008790700080000000013
:10002000000000000000000000000000550400086F
:100030000B02000800000000910300080D050008F5
:10004000B7010008B7010008B7010008B7010008B0
:10005000B7010008B7010008B7010008B7010008A0
:10006000B7010008B7010008B7010008B701000890
:10007000B7010008B7010008B7010008B701000880
:10008000B7010008B7010008B7010008B701000870
:10009000B7010008B7010008B7010008B701000860
:1000A000B7010008B7010008B7010008B701000850
:1000B000B7010008B7010008B7010008B701000840
:1000C000B7010008B7010008B7010008B701000830
:1000D000B70100088D050008B7010008B701000846
:1000E000B7010008B7010008B7010008B701000810
:1000F000B7010008B7010008B7010008B701000800
:10010000B7010008B7010008B7010008B7010008EF
:10011000B7010008B7010008B7010008B7010008DF
:10012000B7010008B7010008B7010008B7010008CF
:10013000B7010008B7010008B7010008B7010008BF
:10014000B7010008B7010008B7010008B7010008AF
:10015000B7010008B7010008B7010008B70100089F
:10016000B7010008B7010008B7010008B70100088F
:10017000B7010008B7010008B7010008B70100087F
:10018000B7010008B7010008DFF80CD000F02AF82A
:1001900000480047990700081804002006488047D7
:1001A00006480047FEE7FEE7FEE7FEE7FEE7FEE75C
:1001B000FEE7FEE7FEE7FEE71105000889010008FB
:1001C00040EA01039B0703D009E008C9121F08C0D9
:1001D000042AFAD203E011F8013B00F8013B521E59
:1001E000F9D27047064C074D06E0E06840F0010385
:1001F00094E8070098471034AC42F6D3FFF7C8FFE5
:10020000F007000810080008FEE770471CB5012140
:10021000084600F0BFF80F4C07220921204600F0E5
:100220006CF807220A21204600F067F84FF4C060FE
:10023000009002208DF8040000208DF806000120B7
:100240008DF8070003208DF805006946204600F070
:1002500003F81CBD00000240F0B500230124032771
:100260000D6804FA03F21540954242D1D0F800C05F
:100270005E0007FA06F52CEA050CC0F800C091F8FC
:1002800004C0D0F800E00CFA06FC4CEA0E0CC0F8F2
:1002900000C091F804C0BCF1010F02D0BCF1020F04
:1002A0001FD1D0F808C02CEA050CC0F808C091F89E
:1002B00005C0D0F808E00CFA06FC4CEA0E0CC0F8B9
:1002C00008C0D0F804C02CEA020CC0F804C0426890
:1002D00091F806C00CFA03FC1FFA8CFC42EA0C02EF
:1002E0004260C268AA43C260CA79C568B2402A4364
:1002F000C2605B1C102BB3D3F0BD4B07DB0E9A40E2
:10030000C90810B500EB8100016A0F249C40A1438D
:100310000162016A1143016210BD0AB10183704795
:1003200041837047FEE7FEE77047000030B50F22BB
:10033000C47801780123FCB1144C246801F1E02158
:1003400004F4E064C4F5E064C4F30724C4F10405D4
:10035000E2404478AC408578154025432A0181F875
:100360000024007800F01F018B404009800000F15C
:10037000E020C0F8003130BD01F01F008340480983
:10038000800000F1E020C0F8803130BD0CED00E0CD
:1003900070470000044A0029116801D0014300E0C1
:1003A000814311607047000030380240044A002940
:1003B000116801D0014300E08143116070470000E3
:1003C0004438024070B5204A1168204C11F00C01ED
:1003D00004D06610042903D0082903D004601BE070
:1003E000066019E01849091F0B68C3F380550B68B4
:1003F00003F03F0315B1B6FBF3F301E0B4FBF3F3F5
:100400000C680968C4F388146343C1F30141491CB3
:100410004900B3FBF1F1016011680F2303EA1111E8
:100420000B4B5C5C0168E14041601468072505EAFC
:1004300094241C5D21FA04F48460126805EA5232A7
:100440009A5CD140C16070BD083802400024F400BD
:1004500004000020704700000CB5002027490190DF
:1004600000900A6842F480320A604FF4A0630A6880
:1004700002F400320092019A521C0192009A12B9C1
:10048000019A9A42F3D10A68920334D50120009070
:100490001A484030026842F08052026018480268F0
:1004A00042F4804202601548083002680260026827
:1004B00042F400420260026842F4A0520260031F4C
:1004C000104A1A600A6842F080720A600A68920153
:1004D000FCD50D4A40F205611160016821F003016D
:1004E0000160016841F0020101600168C1F381010E
:1004F0000229FAD10CBD00900CBD0000003802406A
:100500000070004008544007003C02407047000063
:100510000F4810B5016841F0010101600C4A00214B
:100520000832116002680B4B1A400260031D0A4A30
:100530001A60026822F48022026005480C300160D3
:10054000FFF78AFF05494FF00060086010BD00000A
:1005500000380240FFFFF6FE1030002408ED00E0F6
:1005600070B50E460446084D0BE000BF14F8011BA1
:10057000284600F0FDF84021284600F07FF80028CA
:10058000F9D0761EF2D270BD00100140104810B5AF
:10059000018889061BD500F0E7F80E490E4B31287B
:1005A00008604FF480710BD0302810D1002218461B
:1005B000FFF7B3FE0A2109A0BDE81040FFF7D0BF46
:1005C00001221846FFF7A9FE092107A0F4E710BD94
:1005D0000010014000000020000002404C45442073
:1005E0004F46460D0A0000004C4544204F4E0D0A70
:1005F000000000000029818902D041F4005101E08F
:1006000021F400518181704730B585B0012110205F
:10061000FFF7CCFE4FF41650002400900C20ADF8EC
:100620000A00154DADF80640ADF80C40ADF8084095
:10063000ADF804406946284600F040F801212846FC
:10064000FFF7D8FF012240F22551284600F01DF89F
:1006500025208DF8100001208DF813008DF8114031
:100660008DF8124004A8FFF761FE01212846FFF72C
:10067000C1FF05B030BD000000100140024600205F
:1006800012880A4200D00120704710B5C1F342130E
:1006900001F01F040121A140012B07D0022B07D03C
:1006A0001430002A026805D00A4304E00C30F8E751
:1006B0001030F6E78A43026010BD00007FB50446A3
:1006C000008A0D4620F44051E88808432082A08922
:1006D00041F20C618843A9882A8911436A8902433F
:1006E0001143A181A08A20F44071A8890843A08207
:1006F0006846FFF767FE1A48844202D019488442D0
:1007000001D1039800E00298A189090400EBC0011F
:1007100001EB0010296801D5490000E08900B0FB19
:10072000F1F26420B2FBF0F109010B096FF018053A
:100730006B4302EB8302A3891D044FF0320306D5FD
:1007400003EBC202B2FBF0F000F0070005E003EBA0
:100750000212B2FBF0F000F00F00084320817FBDD1
:1007600000100140001401408088C0F30800704769
:10077000C1F3080181807047FEE702E008C8121F3C
:1007800008C1002AFAD170477047002001E001C17A
:10079000121F002AFBD1704700F002F8FEE70000AC
:1007A00000B587B01C220AA16846FFF709FDFFF7D4
:1007B0002DFDFFF729FF012240F225510B48FFF7DD
:1007C00064FF19216846FFF7CBFE07B000BD0000AB
:1007D0002057656C636F6D6520746F20426C756582
:1007E000746F6F7468210D0A000000000010014052
:1007F0001008000800000020140000007A0700081C
:100800002408000814000020040400008A070008DF
:1008100000000000000000000102030401020304C4
:0408200006070809B6
:040000050800018965
:00000001FF
