:020000040800F2
:10000000000400209D01000805030008010300080A
:1000100003030008E50100082D04000800000000AB
:1000200000000000000000000000000021030008A4
:10003000E70100080000000007030008D9030008DA
:10004000B7010008B7010008B7010008B7010008B0
:10005000B7010008B7010008B7010008B7010008A0
:10006000B7010008B7010008B7010008B701000890
:10007000B7010008B7010008B7010008B701000880
:10008000B7010008B7010008B7010008B701000870
:10009000B7010008B7010008B7010008B701000860
:1000A000B7010008B7010008B7010008B701000850
:1000B000B7010008B7010008B7010008B701000840
:1000C000B7010008B7010008B7010008B701000830
:1000D000B7010008B7010008B7010008B701000820
:1000E000B7010008B7010008B7010008B701000810
:1000F000B7010008B7010008B7010008B701000800
:10010000B7010008B7010008B7010008B7010008EF
:10011000B7010008B7010008B7010008B7010008DF
:10012000B7010008B7010008B7010008B7010008CF
:10013000B7010008B7010008B7010008B7010008BF
:10014000B7010008B7010008B7010008B7010008AF
:10015000B7010008B7010008B7010008B70100089F
:10016000B7010008B7010008B7010008B70100088F
:10017000B7010008B7010008B7010008B70100087F
:10018000B7010008B7010008DFF80CD000F018F83C
:10019000004800474D04000800040020064880473E
:1001A00006480047FEE7FEE7FEE7FEE7FEE7FEE75C
:1001B000FEE7FEE7FEE7FEE7DD0300088901000831
:1001C000064C074D06E0E06840F0010394E80700A4
:1001D00098471034AC42F6D3FFF7DAFF7C040008EE
:1001E0008C040008FEE77047F0B5002301240327C4
:1001F0000D6804FA03F21540954242D1D0F800C0D0
:100200005E0007FA06F52CEA050CC0F800C091F86C
:1002100004C0D0F800E00CFA06FC4CEA0E0CC0F862
:1002200000C091F804C0BCF1010F02D0BCF1020F74
:100230001FD1D0F808C02CEA050CC0F808C091F80E
:1002400005C0D0F808E00CFA06FC4CEA0E0CC0F829
:1002500008C0D0F804C02CEA020CC0F804C0426800
:1002600091F806C00CFA03FC1FFA8CFC42EA0C025F
:100270004260C268AA43C260CA79C568B2402A43D4
:10028000C2605B1C102BB3D3F0BD02460020126984
:100290000A4200D0012070474183704701837047B4
:1002A0001CB50121082000F02FF808200090012043
:1002B0008DF8040000208DF806008DF805008DF8FB
:1002C000070069460148FFF78FFF1CBD000C024084
:1002D0001CB50121082000F017F820200090002014
:1002E0008DF804008DF805008DF8060001208DF8CA
:1002F000070069460148FFF777FF1CBD000C02406C
:10030000FEE7FEE770477047044A0029116801D0F4
:10031000014300E081431160704700003038024023
:10032000704700000CB500202749019000900A6832
:1003300042F480320A604FF4A0630A6802F400328B
:100340000092019A521C0192009A12B9019A9A42A3
:10035000F3D10A68920334D5012000901A48403046
:10036000026842F0805202601848026842F48042FB
:1003700002601548083002680260026842F40042D8
:100380000260026842F4A0520260031F104A1A6021
:100390000A6842F080720A600A689201FCD50D4A30
:1003A00040F205611160016821F0030101600168FC
:1003B00041F0020101600168C1F381010229FAD113
:1003C0000CBD00900CBD00000038024000700040E1
:1003D00008544007003C0240704700000F4810B529
:1003E000016841F0010101600C4A002108321160EE
:1003F00002680B4B1A400260031D0A4A1A60026829
:1004000022F48022026005480C300160FFF78AFF69
:1004100005494FF00060086010BD00000038024040
:10042000FFFFF6FE1030002408ED00E0FEE702E0DA
:1004300008C8121F08C1002AFAD17047704700206F
:1004400001E001C1121F002AFBD17047FFF728FF0E
:10045000FFF73EFF084C6FF0080520212046FFF70C
:1004600014FFA8424FF00801204602DDFFF716FFF7
:10047000F3E7FFF711FFF0E7000C02408C040008DF
:0C04800000000020000400003E04000802
:040000050800018965
:00000001FF
