:020000040800F2
:10000000080400209D010008EB020008E702000838
:10001000E9020008E50100081504000800000000DE
:1000200000000000000000000000000009030008BC
:10003000E701000800000000ED020008C10300080D
:10004000B7010008B7010008B7010008B7010008B0
:10005000B7010008B7010008B7010008B7010008A0
:10006000B7010008B7010008B7010008B701000890
:10007000B7010008B7010008B7010008B701000880
:10008000B7010008B7010008B7010008B701000870
:10009000B7010008B7010008B7010008B701000860
:1000A000B7010008B7010008B7010008B701000850
:1000B000B7010008B7010008B7010008B701000840
:1000C000B7010008B7010008B7010008B701000830
:1000D000B7010008B7010008B7010008B701000820
:1000E000B7010008B7010008B7010008B701000810
:1000F000B7010008B7010008B7010008B701000800
:10010000B7010008B7010008B7010008B7010008EF
:10011000B7010008B7010008B7010008B7010008DF
:10012000B7010008B7010008B7010008B7010008CF
:10013000B7010008B7010008B7010008B7010008BF
:10014000B7010008B7010008B7010008B7010008AF
:10015000B7010008B7010008B7010008B70100089F
:10016000B7010008B7010008B7010008B70100088F
:10017000B7010008B7010008B7010008B70100087F
:10018000B7010008B7010008DFF80CD000F018F83C
:10019000004800473504000808040020064880474E
:1001A00006480047FEE7FEE7FEE7FEE7FEE7FEE75C
:1001B000FEE7FEE7FEE7FEE7C50300088901000849
:1001C000064C074D06E0E06840F0010394E80700A4
:1001D00098471034AC42F6D3FFF7DAFF6804000802
:1001E00088040008FEE7704701B50098411E0091A1
:1001F000FBD208BD70B50121092000F079F80C4C44
:100200004FF440400126206026710025A57103208F
:100210006071E5712146074800F010F826602571ED
:100220000220E0712146BDE87040034800F006B8A6
:1002300000000020000C024000000240F0B5002346
:10024000012403270D6804FA03F21540954242D1B8
:10025000D0F800C05E0007FA06F52CEA050CC0F8DD
:1002600000C091F804C0D0F800E00CFA06FC4CEA9B
:100270000E0CC0F800C091F804C0BCF1010F02D010
:10028000BCF1020F1FD1D0F808C02CEA050CC0F851
:1002900008C091F805C0D0F808E00CFA06FC4CEA5A
:1002A0000E0CC0F808C0D0F804C02CEA020CC0F84C
:1002B00004C0426891F806C00CFA03FC1FFA8CFCDB
:1002C00042EA0C024260C268AA43C260CA79C568A9
:1002D000B2402A43C2605B1C102BB3D3F0BD4183F4
:1002E000704701837047FEE7FEE7704770470000E4
:1002F000044A0029116801D0014300E081431160E4
:100300007047000030380240704700000CB50020F4
:100310002749019000900A6842F480320A604FF445
:10032000A0630A6802F400320092019A521C019202
:10033000009A12B9019A9A42F3D10A68920334D50D
:10034000012000901A484030026842F0805202605A
:100350001848026842F4804202601548083002687A
:100360000260026842F400420260026842F4A05255
:100370000260031F104A1A600A6842F080720A6025
:100380000A689201FCD50D4A40F2056111600168CE
:1003900021F003010160016841F002010160016880
:1003A000C1F381010229FAD10CBD00900CBD0000FF
:1003B000003802400070004008544007003C0240F2
:1003C000704700000F4810B5016841F0010101605D
:1003D0000C4A00210832116002680B4B1A4002607F
:1003E000031D0A4A1A60026822F48022026005484E
:1003F0000C300160FFF78AFF05494FF0006008608C
:1004000010BD000000380240FFFFF6FE103000244F
:1004100008ED00E0FEE702E008C8121F08C1002A4C
:10042000FAD170477047002001E001C1121F002A75
:10043000FBD17047FFF7DEFE094C0A4D4FF44046F2
:1004400031462046FFF74DFF2846FFF7CDFE3146E7
:100450002046FFF744FF2846FFF7C6FEF0E70000FE
:10046000000C0240809698008804000800000020DC
:10047000080000001604000890040008080000208E
:100480000004000026040008000000000000000036
:040000050800018965
:00000001FF
