:020000040800F2
:10000000100400209D010008510300084D03000862
:100010004F030008E5010008790400080000000013
:100020000000000000000000000000006D03000858
:10003000E701000800000000530300082504000841
:10004000B7010008B7010008B7010008B7010008B0
:10005000B7010008B7010008B7010008B7010008A0
:10006000B7010008B7010008B7010008B701000890
:10007000B7010008B7010008B7010008B701000880
:10008000B7010008B7010008B7010008B701000870
:10009000B7010008B7010008B7010008B701000860
:1000A000B7010008B7010008B7010008B701000850
:1000B000B7010008B7010008B7010008B701000840
:1000C000B7010008B7010008B7010008B701000830
:1000D000B7010008B7010008B7010008B701000820
:1000E000B7010008B7010008B7010008B701000810
:1000F000B7010008B7010008B7010008B701000800
:10010000B7010008B7010008B7010008B7010008EF
:10011000B7010008B7010008B7010008B7010008DF
:10012000B7010008B7010008B7010008B7010008CF
:10013000B7010008B7010008B7010008B7010008BF
:10014000B7010008B7010008B7010008B7010008AF
:10015000B7010008B7010008B7010008B70100089F
:10016000B7010008B7010008B7010008B70100088F
:10017000B7010008B7010008B7010008B70100087F
:10018000B7010008B7010008DFF80CD000F018F83C
:1001900000480047A50400081004002006488047D6
:1001A00006480047FEE7FEE7FEE7FEE7FEE7FEE75C
:1001B000FEE7FEE7FEE7FEE72904000889010008E4
:1001C000064C074D06E0E06840F0010394E80700A4
:1001D00098471034AC42F6D3FFF7DAFFD804000892
:1001E000F8040008FEE77047F0B500230124032758
:1001F0000D6804FA03F21540954242D1D0F800C0D0
:100200005E0007FA06F52CEA050CC0F800C091F86C
:1002100004C0D0F800E00CFA06FC4CEA0E0CC0F862
:1002200000C091F804C0BCF1010F02D0BCF1020F74
:100230001FD1D0F808C02CEA050CC0F808C091F80E
:1002400005C0D0F808E00CFA06FC4CEA0E0CC0F829
:1002500008C0D0F804C02CEA020CC0F804C0426800
:1002600091F806C00CFA03FC1FFA8CFC42EA0C025F
:100270004260C268AA43C260CA79C568B2402A43D4
:10028000C2605B1C102BB3D3F0BD000070B5012120
:10029000092000F05FF80C4C4FF44040012620602C
:1002A00026710025A57103206071E571214607487C
:1002B000FFF79AFF266025710220E0712146BDE814
:1002C00070400348FFF790BF00000020000C024080
:1002D000000002400246002012690A4200D00120BC
:1002E0007047418370470183704700001CB50121AE
:1002F000082000F02FF80820009001208DF804005D
:1003000000208DF806008DF805008DF8070069467D
:100310000148FFF769FF1CBD000C024010B5012128
:10032000082000F017F80748202101600021017122
:10033000417181710121C1710146BDE8104002483F
:10034000FFF752BF08000020000C0240FEE7FEE766
:1003500070477047044A0029116801D0014300E04A
:100360008143116070470000303802407047000040
:100370000CB500202749019000900A6842F48032B1
:100380000A604FF4A0630A6802F400320092019AF6
:10039000521C0192009A12B9019A9A42F3D10A684A
:1003A000920334D5012000901A484030026842F090
:1003B000805202601848026842F480420260154888
:1003C000083002680260026842F40042026002687B
:1003D00042F4A0520260031F104A1A600A6842F0F9
:1003E00080720A600A689201FCD50D4A40F20561EC
:1003F0001160016821F003010160016841F0020110
:1004000001600168C1F381010229FAD10CBD00909D
:100410000CBD000000380240007000400854400746
:10042000003C0240704700000F4810B5016841F0E1
:10043000010101600C4A00210832116002680B4B77
:100440001A400260031D0A4A1A60026822F48022E0
:10045000026005480C300160FFF78AFF05494FF044
:100460000060086010BD000000380240FFFFF6FE8B
:100470001030002408ED00E0FEE702E008C8121F7B
:1004800008C1002AFAD170477047002001E001C17D
:10049000121F002AFBD1704708210148FFF723BF34
:1004A000000C0240FFF7F2FEFFF738FFFFF71EFFD8
:1004B000054C20212046FFF70DFF10B1FFF7ECFFA0
:1004C000F7E700F003F8F4E7000C024008210148C8
:1004D000FFF707BF000C0240F804000800000020EE
:1004E000100000007A040008080500081000002031
:1004F000000400008A040008000000000000000062
:080500000000000000000000F3
:040000050800018965
:00000001FF
